{
  "_format": "hh-sol-artifact-1",
  "contractName": "SimpleStorage",
  "sourceName": "contracts/simple-storage.sol",
  "abi": [
    {
      "inputs": [],
      "stateMutability": "nonpayable",
      "type": "constructor"
    },
    {
      "anonymous": false,
      "inputs": [
        {
          "indexed": false,
          "internalType": "string",
          "name": "newMessage",
          "type": "string"
        }
      ],
      "name": "MessageUpdated",
      "type": "event"
    },
    {
      "anonymous": false,
      "inputs": [
        {
          "indexed": true,
          "internalType": "address",
          "name": "newOwner",
          "type": "address"
        }
      ],
      "name": "OwnerSet",
      "type": "event"
    },
    {
      "anonymous": false,
      "inputs": [
        {
          "indexed": false,
          "internalType": "uint256",
          "name": "newValue",
          "type": "uint256"
        }
      ],
      "name": "ValueUpdated",
      "type": "event"
    },
    {
      "inputs": [],
      "name": "getValue",
      "outputs": [
        {
          "internalType": "uint256",
          "name": "",
          "type": "uint256"
        }
      ],
      "stateMutability": "view",
      "type": "function"
    },
    {
      "inputs": [],
      "name": "message",
      "outputs": [
        {
          "internalType": "string",
          "name": "",
          "type": "string"
        }
      ],
      "stateMutability": "view",
      "type": "function"
    },
    {
      "inputs": [],
      "name": "owner",
      "outputs": [
        {
          "internalType": "address",
          "name": "",
          "type": "address"
        }
      ],
      "stateMutability": "view",
      "type": "function"
    },
    {
      "inputs": [
        {
          "internalType": "string",
          "name": "_message",
          "type": "string"
        }
      ],
      "name": "setMessage",
      "outputs": [],
      "stateMutability": "nonpayable",
      "type": "function"
    },
    {
      "inputs": [
        {
          "internalType": "uint256",
          "name": "_value",
          "type": "uint256"
        }
      ],
      "name": "setValue",
      "outputs": [],
      "stateMutability": "nonpayable",
      "type": "function"
    }
  ],
  "bytecode": "0x6080604052348015600e575f5ffd5b505f80546001600160a01b03191633908117825560405190917f50146d0e3c60aa1d17a70635b05494f864e86144a2201275021014fbf08bafe291a261058a806100575f395ff3fe608060405234801561000f575f5ffd5b5060043610610064575f3560e01c8063552410771161004d57806355241077146100935780638da5cb5b146100a6578063e21f37ce146100ea575f5ffd5b80632096525514610068578063368b87721461007e575b5f5ffd5b6001546040519081526020015b60405180910390f35b61009161008c366004610300565b6100ff565b005b6100916100a13660046103b3565b6101bb565b5f546100c59073ffffffffffffffffffffffffffffffffffffffff1681565b60405173ffffffffffffffffffffffffffffffffffffffff9091168152602001610075565b6100f2610260565b60405161007591906103ca565b5f5473ffffffffffffffffffffffffffffffffffffffff1633146101745760405162461bcd60e51b815260206004820152602160248201527f4f6e6c79206f776e65722063616e2063616c6c20746869732066756e6374696f6044820152603760f91b60648201526084015b60405180910390fd5b60026101808282610499565b507f8fae638bf5c6396194a6bb16601c4035a07fa48191638ff4102f0d96f14cfefb816040516101b091906103ca565b60405180910390a150565b5f5473ffffffffffffffffffffffffffffffffffffffff16331461022b5760405162461bcd60e51b815260206004820152602160248201527f4f6e6c79206f776e65722063616e2063616c6c20746869732066756e6374696f6044820152603760f91b606482015260840161016b565b60018190556040518181527f4273d0736f60e0dedfe745e86718093d8ec8646ebd2a60cd60643eeced565811906020016101b0565b6002805461026d90610415565b80601f016020809104026020016040519081016040528092919081815260200182805461029990610415565b80156102e45780601f106102bb576101008083540402835291602001916102e4565b820191905f5260205f20905b8154815290600101906020018083116102c757829003601f168201915b505050505081565b634e487b7160e01b5f52604160045260245ffd5b5f60208284031215610310575f5ffd5b813567ffffffffffffffff811115610326575f5ffd5b8201601f81018413610336575f5ffd5b803567ffffffffffffffff811115610350576103506102ec565b604051601f8201601f19908116603f0116810167ffffffffffffffff8111828210171561037f5761037f6102ec565b604052818152828201602001861015610396575f5ffd5b816020840160208301375f91810160200191909152949350505050565b5f602082840312156103c3575f5ffd5b5035919050565b602081525f82518060208401525f5b818110156103f657602081860181015160408684010152016103d9565b505f604082850101526040601f19601f83011684010191505092915050565b600181811c9082168061042957607f821691505b60208210810361044757634e487b7160e01b5f52602260045260245ffd5b50919050565b601f82111561049457805f5260205f20601f840160051c810160208510156104725750805b601f840160051c820191505b81811015610491575f815560010161047e565b50505b505050565b815167ffffffffffffffff8111156104b3576104b36102ec565b6104c7816104c18454610415565b8461044d565b6020601f8211600181146104f9575f83156104e25750848201515b5f19600385901b1c1916600184901b178455610491565b5f84815260208120601f198516915b828110156105285787850151825560209485019460019092019101610508565b508482101561054557868401515f19600387901b60f8161c191681555b50505050600190811b0190555056fea2646970667358221220e5f4ccb5ee0057ecb20beb6b6e19f638b42d990c0719d315e4afde919220380f64736f6c634300081b0033",
  "linkReferences": {},
  "deployedLinkReferences": {}
}